:020000040800F2
:100000000050002075160008650400086704000809
:10001000690400086B0400086D040008000000007B
:100020000000000000000000000000006F04000855
:100030007104000800000000730400087504000843
:10004000BD160008BD160008BD160008BD16000844
:10005000BD160008BD160008BD160008BD16000834
:10006000BD160008BD160008BD160008BD16000824
:10007000BD1600087D040008BD160008BD16000866
:10008000BD160008BD160008BD160008BD16000804
:10009000BD160008BD160008BD160008BD160008F4
:1000A000BD160008BD160008BD160008BD160008E4
:1000B000BD160008BD160008BD160008BD160008D4
:1000C000BD160008BD160008BD160008BD160008C4
:1000D000BD160008BD160008BD160008BD160008B4
:1000E000BD160008BD160008BD160008000000007F
:1000F0000000000000000000000000000000000000
:0C01000000000000000000005FF808F1A3
:10010C0010B5054C237833B9044B13B10448AFF345
:10011C0000800123237010BD0C00002000000000A3
:10012C001817000808B5034B1BB103490348AFF37C
:10013C00008008BD00000000100000201817000807
:10014C0010B588B00023049305930693079303F12D
:10015C00804303F504339A6942F010029A619A695C
:10016C0002F010020092009A9A6942F020029A6101
:10017C009A6902F020020192019A9A6942F00402F3
:10018C009A619A6902F004020292029A9A6942F008
:10019C0008029A619B6903F008030393039B4FF4D5
:1001AC00604304930324059404A9114800F0B4FFA0
:1001BC000494059404A90F4800F0AEFF49F65F7350
:1001CC000493059404A90C4800F0A6FF4FF6F773AE
:1001DC000493059404A9094800F09EFF084A53684B
:1001EC0043F0E06343F40043536008B010BD00BF1C
:1001FC00001001400014014000080140000C0140B7
:10020C000000014000B583B00A4B5A6942F001026C
:10021C005A615B6903F001030193019B00221146B3
:10022C000D2001F0C5F90D2001F0FAF903B05DF8CD
:10023C0004FB00BF0010024030B58200551C8BB28D
:10024C0003F1010C0FFA8CFC0B4C14F820E00B485A
:10025C0000F801E002F1020E991C09B2655D00F88C
:10026C000C50033203331BB214F80EC000F801C05B
:10027C00A25CC25430BD00BF30170008C40000207F
:10028C0070B506460846154603EB43039C0021B2A5
:10029C00FFF7D2FFA4B2211D09B23046FFF7CCFF05
:1002AC00083421B22846FFF7C7FF70BD08B5C0223D
:1002BC000549064800F006FB044B1B689B6813F0CD
:1002CC00800FF9D108BD00BFC40000206C000020D5
:1002DC00F8B507460E461546002406E023B22A461A
:1002EC0031463846FFF7CCFF01340F2CF6DDFFF713
:1002FC00DDFFF8BD08B58446084611461A460FFACC
:10030C008CF3FFF7BDFFFFF7D1FF08BD00B583B03D
:10031C000023ADF804306423012201A9024800F047
:10032C00F4F903B05DF804FB6C00002072B6FEE734
:10033C0008B50D480D4B03604FF4827343600023E6
:10034C008360C360036143614FF4007282611822C1
:10035C00C2610362436283620A23C36200F07AF9CA
:10036C0000B908BDFFF7E2FF6C000020003001402F
:10037C0000B591B02822002106A801F0BFF9002396
:10038C000193029303930493059302230693012292
:10039C000A9210220B920D934FF420130F9306A880
:1003AC0000F0C6FB88B90F230193022302930023AC
:1003BC0003934FF4806204920593012101A800F08D
:1003CC00F5FD20B911B05DF804FBFFF7AFFFFFF7A7
:1003DC00ADFF10B500F05EFBFFF7CAFFFFF7B0FEF4
:1003EC00FFF710FFFFF7A4FFFFF790FF2AE00023B1
:1003FC001A461421A0B2FFF77DFF3E2000F06EFBE1
:10040C00013464B20F2CF2DD00240AE00023142224
:10041C001946A0B2FFF76EFF3E2000F05FFB0134DF
:10042C0064B20F2CF2DD00240AE0142300221146E2
:10043C00A0B2FFF75FFF3E2000F050FB013464B226
:10044C000F2CF2DD002211461046FFF741FFC820A9
:10045C0000F044FB0024D5E7FEE7FEE7FEE7FEE7ED
:10046C00FEE770477047704708B500F025FB08BDE4
:10047C0008B5024800F0E8FF08BD00BF28000020C6
:10048C0082B00E4B9A6942F001029A619A6902F0AD
:10049C0001020092009ADA6942F08052DA61DB695B
:1004AC0003F080530193019B054A536823F0E063EA
:1004BC0043F00073536002B0704700BF001002405D
:1004CC000000014010B586B00023029303930493FF
:1004DC00059302681D4B9A4201D006B010BD04462C
:1004EC0003F560439A6942F480529A619A6902F466
:1004FC0080520092009A9A6942F004029A619B69B8
:10050C0003F004030193019BA023029302230393A2
:10051C000323059302A90E4800F0FEFD0D480E4B77
:10052C00036010234360002383608022C260036158
:10053C0043618361C36100F017FF18B9054BA364D5
:10054C005C62CAE7FFF7F2FEF8E700BF003001403B
:10055C000008014028000020300002402DE9F0473F
:10056C0082B00546884617461E4600F0B1FA0A9B33
:10057C001B1A03EB060900F0ABFA82462B4B1B68E7
:10058C00C3F3CB3309FB03F301932B689C6838EA64
:10059C0004030CBF4FF0010C4FF0000CBC4540D0D5
:1005AC00B6F1FF3FF1D000F093FAA0EB0A004845FA
:1005BC000AD2B9F1000F07D0019A02B14A46019B49
:1005CC00013B01939146E0E72A68536823F0E0036E
:1005DC0053606B68B3F5827F0BD0AB6AB3F5005FE9
:1005EC0014D0012385F85130002385F850300320B6
:1005FC0018E0AB68B3F5004F02D0B3F5806FECD1C7
:10060C002A68136823F040031360E6E72A6813682E
:10061C0023F4005313602A68136843F400531360E7
:10062C00DFE7002002B0BDE8F08700BF0800002023
:10063C0010B582B004460B46009200228021FFF7D1
:10064C008DFF08B902B010BD636D43F020036365E4
:10065C000320F7E7002856D010B50446436A33B997
:10066C004368B3F5827F05D00023C36102E0002309
:10067C00036143610023A36294F85130002B3CD0FA
:10068C00022384F851302268136823F0400313606E
:10069C00636803F48273A26802F404421343E268B1
:1006AC0002F400621343226902F0020213436269EE
:1006BC0002F001021343A26902F400721343E269CF
:1006CC0002F038021343226A02F080021343A26A3A
:1006DC0002F40052216813430B60638B226803F011
:1006EC00040353602268D36923F40063D3610020B0
:1006FC006065012384F8513010BD84F850302046D9
:10070C00FFF7E0FEBCE7012070472DE9F04383B012
:10071C001D4690F85030012B00F0D18004468846DD
:10072C009146012380F8503000F0D2F9074694F836
:10073C005160F6B2012E40F0AF80B8F1000F00F01E
:10074C00AC80B9F1000F00F0A880032384F851307D
:10075C0000236365C4F83080A4F83490A4F8369074
:10076C00A363A387E38763642364A368B3F5004F93
:10077C001ED023681A6812F0400F03D11A6842F099
:10078C0040021A60E368B3F5006F1CD0636813B1C4
:10079C00B9F1010F52D1226B236812781A73236BB3
:1007AC0001332363E38E9BB2013B9BB2E38645E0AE
:1007BC002268136823F0400313602268136843F423
:1007CC0080431360D5E7636813B1B9F1010F16D1FB
:1007DC00226B23681288DA60236B02332363E38E67
:1007EC009BB2013B9BB2E38609E000F071F9C01BA0
:1007FC00A84202D3B5F1FF3F59D1002D59D0E38E59
:10080C009BB2002B33D023689A6812F0020FECD005
:10081C00226B1288DA60236B02332363E38E9BB264
:10082C00013B9BB2E386EAE700F052F9C01BA842F9
:10083C0002D3B5F1FF3F3ED1002D3ED0E38E9BB2EB
:10084C00ABB123689A6812F0020FEDD0226B1278CC
:10085C001A73236B01332363B4F836C01FFA8CFC74
:10086C000CF1FF3C1FFA8CFCA4F836C0E6E73A46C4
:10087C0029462046FFF7DCFE08B120236365A368F8
:10088C0033B901932368DA6801929B680193019B49
:10089C00636D13B9002600E00226012384F8513061
:1008AC00002384F85030304603B0BDE8F0830326B3
:1008BC00F3E70326F1E70326EFE70326EDE702262D
:1008CC00F1E7000038B590F85030012B61D00446A8
:1008DC00012380F8503090F85150EDB29D4252D126
:1008EC00002951D0002A4FD0032380F85130002327
:1008FC00436501638286C286836343640364838792
:10090C00C3878368B3F5004F2AD0A36C224ADA62FE
:10091C00A36C224A9A62A36C214A1A63A36C00222C
:10092C005A632268E38E9BB20C32216BA06C00F0F0
:10093C0051FD0146F8B923681A6812F0400F03D133
:10094C001A6842F040021A602268536843F0200390
:10095C0053602268536843F0020353600D4613E062
:10096C000268136823F0400313600268136843F4B1
:10097C0080431360C9E7636D43F010036365012383
:10098C0084F8513000E00225002384F850302846CA
:10099C0038BD0225FBE700BFB5090008E3090008D4
:1009AC00C10900087047704708B5406AFFF7FBFFA4
:1009BC0008BD704708B5406A0268536823F003030A
:1009CC005360436D43F010034365012380F85130AD
:1009DC00FFF7EFFF08BD30B583B00546446A00F061
:1009EC0077F82B681B6813F0200F23D1024621687F
:1009FC004B6823F020034B6021684B6823F0020303
:100A0C004B6064212046FFF713FE18B1636D43F071
:100A1C0020036365A36833B901932368DA680192F4
:100A2C009B680193019B0023E386012384F85130DA
:100A3C00636D23B92046FFF7B5FF03B030BD2046E8
:100A4C00FFF7B7FFF9E7000010B504460E4B187816
:100A5C004FF47A73B3FBF0F30C4A1068B0FBF3F06D
:100A6C0000F0ECFD68B90F2C01D901200AE000223E
:100A7C0021464FF0FF3000F09BFD054B1C60002021
:100A8C0000E0012010BD00BF000000200800002085
:100A9C000400002008B5074A136843F010031360E4
:100AAC00032000F073FD0020FFF7CEFFFFF7E8FCFA
:100ABC00002008BD00200240034A1168034B1B783C
:100ACC000B441360704700BF84010020000000201D
:100ADC00014B1868704700BF8401002038B50446EC
:100AEC00FFF7F6FF0546B4F1FF3F02D0044B1B782D
:100AFC001C44FFF7EDFF401BA042FAD338BD00BFEA
:100B0C000000002082B0084B1B68084AA2FB03239C
:100B1C005B0A00FB03F3019300BF019B5A1E019279
:100B2C00002BF9D102B0704708000020D34D6210A1
:100B3C00002800F0F18170B582B00446036813F010
:100B4C00010F2CD0994B5B6803F00C03042B1DD0C8
:100B5C00964B5B6803F00C03082B12D06368B3F55B
:100B6C00803F41D0002B55D103F1804303F5043372
:100B7C001A6822F480321A601A6822F480221A60F1
:100B8C0037E08A4B5B6813F4803FE7D0874B1B68D8
:100B9C0013F4003F03D06368002B00F0BF8123687F
:100BAC0013F0020F75D0814B5B6813F00C0F5FD004
:100BBC007E4B5B6803F00C03082B54D02369002B8D
:100BCC0000F08A807A4B01221A60FFF781FF0546FC
:100BDC00764B1B6813F0020F75D1FFF779FF401BA2
:100BEC000228F5D903209EE1704A136843F4803340
:100BFC001360636843B3FFF76BFF05466B4B1B68D1
:100C0C0013F4003FCBD1FFF763FF401B6428F5D9E9
:100C1C00032088E1B3F5A02F09D0644B1A6822F4A5
:100C2C0080321A601A6822F480221A60E1E703F11C
:100C3C008043A3F53C331A6842F480221A601A6888
:100C4C0042F480321A60D4E7FFF742FF0546574B57
:100C5C001B6813F4003FA2D0FFF73AFF401B642837
:100C6C00F5D903205FE1514B5B6813F4803FA5D1AC
:100C7C004E4B1B6813F0020F03D02369012B40F07D
:100C8C004F814A4A136823F0F803616943EAC103B0
:100C9C001360236813F0080F33D0A369002B5CD0CA
:100CAC00434B0122C3F88024FFF712FF05463F4B4C
:100CBC005B6A13F0020F21D1FFF70AFF401B0228D9
:100CCC00F5D903202FE1394A136823F0F803616941
:100CDC0043EAC1031360DCE7354B00221A60FFF7CF
:100CEC00F7FE0546314B1B6813F0020FD1D0FFF70E
:100CFC00EFFE401B0228F5D9032014E10120FFF779
:100D0C0001FF236813F0040F00F09680274BDB697A
:100D1C0013F0805F34D1254BDA6942F08052DA61EE
:100D2C00DB6903F080530193019B0125214B1B6868
:100D3C0013F4807F26D0E368012B3DD0002B53D1D8
:100D4C0003F1804303F504331A6A22F001021A629C
:100D5C001A6A22F004021A6233E0154B0022C3F81F
:100D6C008024FFF7B5FE0546104B5B6A13F0020FAB
:100D7C00C7D0FFF7ADFE401B0228F5D90320D2E007
:100D8C000025D3E70B4A136843F480731360FFF715
:100D9C009FFE0646074B1B6813F4807FCBD1FFF7F1
:100DAC0097FE801B6428F5D90320BCE0001002409C
:100DBC0000004242007000405F4A136A43F0010396
:100DCC001362E36833B3FFF783FE06465A4B1B6A84
:100DDC0013F0020F2FD1FFF77BFE801B41F28833FB
:100DEC009842F3D903209EE0052B09D0524B1A6A86
:100DFC0022F001021A621A6A22F004021A62E0E777
:100E0C004D4B1A6A42F004021A621A6A42F001024D
:100E1C001A62D6E7FFF75CFE0646474B1B6A13F0D7
:100E2C00020F08D0FFF754FE801B41F28833984222
:100E3C00F3D9032077E0E5B9E369002B72D03E4A81
:100E4C00526802F00C02082A56D0022B17D03B4BEA
:100E5C0000221A66FFF73CFE0446374B1B6813F062
:100E6C00007F47D0FFF734FE001B0228F5D9032082
:100E7C0059E0314AD36923F08053D361DCE72F4B1F
:100E8C0000221A66FFF724FE05462B4B1B6813F055
:100E9C00007F06D0FFF71CFE401B0228F5D903206B
:100EAC0041E0236AB3F5803F1AD023494B6823F401
:100EBC007413226A606A024313434B601F4B012276
:100ECC001A66FFF705FE04461B4B1B6813F0007FE8
:100EDC000ED1FFF7FDFD001B0228F5D9032022E0FF
:100EEC00154A536823F40033A1680B435360DCE7C5
:100EFC00002018E0002016E0012B16D00E4B5B688A
:100F0C0003F48031226A914211D103F47013626AA6
:100F1C0093420ED1002006E001207047012002E030
:100F2C00012000E0002002B070BD0120FBE7012091
:100F3C00F9E70120F7E700BF001002400000424231
:100F4C0086B0164B0FCB0DF1180C0CE90F0040F2CC
:100F5C000123ADF80430124B5B6803F00C02082A35
:100F6C0002D0104806B07047C3F38342624412F8B3
:100F7C00100C13F4803F0CD0094B5B68C3F3404357
:100F8C00634413F8143C074A02FB00F0B0FBF3F087
:100F9C00E8E7054B03FB00F0E4E700BF301B00085B
:100FAC000010024000127A0000093D00002800F0F9
:100FBC00A08070B50D460446524B1B6803F0070326
:100FCC008B420BD24F4A136823F007030B43136079
:100FDC00136803F007038B4240F08D80236813F0F5
:100FEC00020F17D013F0040F04D0474A536843F490
:100FFC00E0635360236813F0080F04D0424A53682F
:10100C0043F460535360404A536823F0F003A168E3
:10101C000B435360236813F0010F31D06368012B2D
:10102C0020D0022B25D0384A126812F0020F64D05F
:10103C0035494A6822F0030213434B60FFF748FD21
:10104C000646314B5B6803F00C036268B3EB820F0E
:10105C0016D0FFF73DFD801B41F288339842F0D942
:10106C00032045E0284A126812F4003FE0D1012029
:10107C003EE0254A126812F0007FD9D1012037E0FA
:10108C00204B1B6803F00703AB420AD91D4A1368B7
:10109C0023F007032B431360136803F00703AB42E1
:1010AC002DD1236813F0040F06D0174A536823F48C
:1010BC00E063E1680B435360236813F0080F07D01B
:1010CC00114A536823F46053216943EAC103536006
:1010DC00FFF736FF0C4B5B68C3F303130B4AD35C6F
:1010EC00D8400B4B18600B4B1868FFF7ADFC002079
:1010FC0070BD012070470120FAE70120F8E70120BC
:10110C00F6E700BF0020024000100240441B00081C
:10111C00080000200400002070B582B00024A44612
:10112C00A6E0804DAA4210D007D97F4DAA420CD020
:10113C0005F58035AA4208D013E0A5F58015AA4222
:10114C0003D005F57025AA4207D18A68002A58D029
:10115C00012A51D04361082403E0A5F58015AA4269
:10116C00F3D0BEF1FF0F4ED80646BEF1FF0F4CD8A0
:10117C004FEA8C0233680F25954023EA050304FAE5
:10118C0002F2134333604B6813F0805F6ED0674BF1
:10119C009A6942F001029A619B6903F00103019381
:1011AC00019B4FEA9C02951C614B53F825600CF097
:1011BC0003039D000F23AB4026EA03065D4B9842C8
:1011CC0029D003F58063984200F08E8003F580638C
:1011DC00984200F08B8003F58063984219D0042369
:1011EC001AE0CC68BDE7CC680434BAE7CC680834A4
:1011FC00B7E7CC680C34B4E703610824B1E70024EA
:10120C00AFE70424ADE7061DAFE7ACF1080292008E
:10121C00B0E7032300E00023AB4033430232444DDC
:10122C0045F822304B6813F4803F61D0424A136872
:10123C0043EA0E0313604B6813F4003F5ED03E4A42
:10124C00536843EA0E0353604B6813F4801F5BD062
:10125C00394A936843EA0E0393604B6813F4001FFA
:10126C0058D0354AD36843EA0E03D3600CF1010C15
:10127C000A6832FA0CF353D0012303FA0CF302EA96
:10128C00030E33EA0202F1D14A68122A3FF649AF43
:10129C00122A3FF666AF01A555F822F05711000847
:1012AC00EF110008F91100080B1200086F1100086B
:1012BC006F1100086F1100086F1100086F11000802
:1012CC006F1100086F1100086F1100086F110008F2
:1012DC006F1100086F1100086F1100086F110008E2
:1012EC00F3110008FF110008012395E7022393E78F
:1012FC00114A136823EA0E0313609CE70E4A5368E5
:10130C0023EA0E0353609FE70B4A936823EA0E030C
:10131C009360A2E7084AD36823EA0E03D360A5E7DB
:10132C0002B070BD0000221000003110001002400D
:10133C0000000140000801400004014030B40124C9
:10134C00056CAC40C56B6C60046863604368102B23
:10135C0005D0036899600368DA6030BC7047036895
:10136C009A600368D960F8E760B310B4024601686C
:10137C00154B0B441548A0FB03031B099B0013647E
:10138C00134BD363022382F82130086820F47F507A
:10139C0020F03000536894682343D46823431469C5
:1013AC0023435469234394692343D469234303435C
:1013BC000B6000209063012382F8213082F820001A
:1013CC0010BC704701207047F8FFFDBFCDCCCCCCD2
:1013DC000000024038B5044690F82000012831D0B6
:1013EC00012084F8200094F82100012804D0002367
:1013FC0084F82030022038BD022084F8210000201F
:10140C00A0632568286820F0010028602046FFF7BB
:10141C0095FFE36A5BB12268136843F00E03136017
:10142C002268136843F0010313600020E3E722688D
:10143C00136823F0040313602268136843F00A0353
:10144C001360EDE70220D6E738B5C36B1A68046861
:10145C002568016C04238B40134235D015F0040F22
:10146C0032D0236813F0200F03D1236823F0040338
:10147C0023600368434A934214D01432934218D029
:10148C001432934217D01432934217D01432934231
:10149C0017D01432934202D04FF0806203E04FF425
:1014AC00800200E00422384B5A60C36A03B19847AB
:1014BC0038BD4022F7E74FF48062F4E74FF48042E6
:1014CC00F1E74FF48022EEE702238B4013423CD02D
:1014DC0015F0020F39D0236813F0200F06D12368C2
:1014EC0023F00A032360012380F821300368254A86
:1014FC00934214D0143293421CD0143293421BD01A
:10150C00143293421BD0143293421BD014329342A8
:10151C0002D04FF0007203E04FF4001200E0022200
:10152C00194B5A60002380F82030836A002BBFD0FF
:10153C009847BDE72022F3E74FF40072F0E74FF431
:10154C000052EDE74FF40032EAE7082303FA01F109
:10155C001142ADD015F0080FAAD0236823F00E036A
:10156C002360026CC16B012303FA02F24A608363AD
:10157C0080F82130002380F82030036B002B97D0AB
:10158C00984795E70800024000000240074AD368DC
:10159C0023F4E0631B041B0C000200F4E060034323
:1015AC0043F0BF6343F40033D360704700ED00E0B9
:1015BC0000B5194BDB68C3F30223C3F1070CBCF174
:1015CC00040F28BF4FF0040C03F1040EBEF1060FFC
:1015DC0018D9033B4FF0FF3E0EFA0CFC21EA0C012C
:1015EC0099400EFA03F322EA0303194300280BDB9C
:1015FC000901C9B200F1604000F5614080F80013A8
:10160C005DF804FB0023E5E700F00F000901C9B207
:10161C00024B1954F4E700BF00ED00E014ED00E0BC
:10162C00002807DB00F01F02400901239340024A07
:10163C0042F82030704700BF00E100E00138B0F103
:10164C00807F0BD24FF0E0235861054AF02182F8DD
:10165C0023100020986107221A61704701207047FF
:10166C0000ED00E070470000002103E00B4B5B58DD
:10167C00435004310A480B4B42189A42F6D30A4A9B
:10168C0002E0002342F8043B084B9A42F9D3FFF7DF
:10169C00E9FF00F00FF8FEF79CFE70475C1B00089A
:1016AC00000000200C0000200C000020880100200D
:1016BC00FEE7000070B500260C4D0D4C641BA41009
:1016CC00A64209D100F022F800260A4D0A4C641BF0
:1016DC00A410A64205D170BD55F8043B98470136BD
:1016EC00EEE755F8043B98470136F2E7541B000827
:1016FC00541B0008541B0008581B000803460244E6
:10170C00934200D1704703F8011BF9E7F8B500BF0D
:10171C00F8BC08BC9E467047F8B500BFF8BC08BCC6
:04172C009E4670471E
:101730004444444444444447444444744444447703
:1017400044444744444447474444477444444777E7
:101750004444744444447447444474744444747723
:101760004444774444447747444477744444777707
:1017700044474444444744474447447444474477B7
:10178000444747444447474744474774444747779B
:1017900044477444444774474447747444477477D7
:1017A00044477744444777474447777444477777BB
:1017B00044744444447444474474447444744477C3
:1017C00044744744447447474474477444744777A7
:1017D00044747444447474474474747444747477E3
:1017E00044747744447477474474777444747777C7
:1017F0004477444444774447447744744477447777
:10180000447747444477474744774774447747775A
:101810004477744444777447447774744477747796
:10182000447777444477774744777774447777777A
:1018300047444444474444474744447447444477F6
:1018400047444744474447474744477447444777DA
:101850004744744447447447474474744744747716
:1018600047447744474477474744777447447777FA
:1018700047474444474744474747447447474477AA
:10188000474747444747474747474774474747778E
:1018900047477444474774474747747447477477CA
:1018A00047477744474777474747777447477777AE
:1018B00047744444477444474774447447744477B6
:1018C000477447444774474747744774477447779A
:1018D00047747444477474474774747447747477D6
:1018E00047747744477477474774777447747777BA
:1018F000477744444777444747774474477744776A
:10190000477747444777474747774774477747774D
:101910004777744447777447477774744777747789
:10192000477777444777774747777774477777776D
:101930007444444474444447744444747444447741
:101940007444474474444747744447747444477725
:101950007444744474447447744474747444747761
:101960007444774474447747744477747444777745
:1019700074474444744744477447447474474477F5
:1019800074474744744747477447477474474777D9
:101990007447744474477447744774747447747715
:1019A00074477744744777477447777474477777F9
:1019B0007474444474744447747444747474447701
:1019C00074744744747447477474477474744777E5
:1019D0007474744474747447747474747474747721
:1019E0007474774474747747747477747474777705
:1019F00074774444747744477477447474774477B5
:101A00007477474474774747747747747477477798
:101A100074777444747774477477747474777477D4
:101A200074777744747777477477777474777777B8
:101A30007744444477444447774444747744447734
:101A40007744474477444747774447747744477718
:101A50007744744477447447774474747744747754
:101A60007744774477447747774477747744777738
:101A700077474444774744477747447477474477E8
:101A800077474744774747477747477477474777CC
:101A90007747744477477447774774747747747708
:101AA00077477744774777477747777477477777EC
:101AB00077744444777444477774447477744477F4
:101AC00077744744777447477774477477744777D8
:101AD0007774744477747447777474747774747714
:101AE00077747744777477477774777477747777F8
:101AF00077774444777744477777447477774477A8
:101B0000777747447777474777774774777747778B
:101B100077777444777774477777747477777477C7
:101B200077777744777777477777777477777777AB
:101B300002030405060708090A0B0C0D0E0F10100E
:101B4000000000000000000000000000010203048B
:041B50000607080973
:041B54003101000853
:041B58000D01000873
:0C1B5C0001000000100000000024F40054
:040000050800167564
:00000001FF
